{
  "contractName": "FileStorage",
  "abi": [
    {
      "anonymous": false,
      "inputs": [
        {
          "indexed": true,
          "internalType": "bytes32",
          "name": "role",
          "type": "bytes32"
        },
        {
          "indexed": true,
          "internalType": "bytes32",
          "name": "previousAdminRole",
          "type": "bytes32"
        },
        {
          "indexed": true,
          "internalType": "bytes32",
          "name": "newAdminRole",
          "type": "bytes32"
        }
      ],
      "name": "RoleAdminChanged",
      "type": "event"
    },
    {
      "anonymous": false,
      "inputs": [
        {
          "indexed": true,
          "internalType": "bytes32",
          "name": "role",
          "type": "bytes32"
        },
        {
          "indexed": true,
          "internalType": "address",
          "name": "account",
          "type": "address"
        },
        {
          "indexed": true,
          "internalType": "address",
          "name": "sender",
          "type": "address"
        }
      ],
      "name": "RoleGranted",
      "type": "event"
    },
    {
      "anonymous": false,
      "inputs": [
        {
          "indexed": true,
          "internalType": "bytes32",
          "name": "role",
          "type": "bytes32"
        },
        {
          "indexed": true,
          "internalType": "address",
          "name": "account",
          "type": "address"
        },
        {
          "indexed": true,
          "internalType": "address",
          "name": "sender",
          "type": "address"
        }
      ],
      "name": "RoleRevoked",
      "type": "event"
    },
    {
      "inputs": [],
      "name": "ALLOCATOR_ROLE",
      "outputs": [
        {
          "internalType": "bytes32",
          "name": "",
          "type": "bytes32"
        }
      ],
      "stateMutability": "view",
      "type": "function"
    },
    {
      "inputs": [],
      "name": "DEFAULT_ADMIN_ROLE",
      "outputs": [
        {
          "internalType": "bytes32",
          "name": "",
          "type": "bytes32"
        }
      ],
      "stateMutability": "view",
      "type": "function"
    },
    {
      "inputs": [],
      "name": "EMPTY_INDEX",
      "outputs": [
        {
          "internalType": "uint256",
          "name": "",
          "type": "uint256"
        }
      ],
      "stateMutability": "view",
      "type": "function"
    },
    {
      "inputs": [],
      "name": "MAX_BLOCK_COUNT",
      "outputs": [
        {
          "internalType": "uint256",
          "name": "",
          "type": "uint256"
        }
      ],
      "stateMutability": "view",
      "type": "function"
    },
    {
      "inputs": [],
      "name": "MAX_FILESIZE",
      "outputs": [
        {
          "internalType": "uint256",
          "name": "",
          "type": "uint256"
        }
      ],
      "stateMutability": "view",
      "type": "function"
    },
    {
      "inputs": [],
      "name": "MEGABYTE",
      "outputs": [
        {
          "internalType": "uint256",
          "name": "",
          "type": "uint256"
        }
      ],
      "stateMutability": "view",
      "type": "function"
    },
    {
      "inputs": [],
      "name": "STORAGE_SPACE_SLOT",
      "outputs": [
        {
          "internalType": "bytes32",
          "name": "",
          "type": "bytes32"
        }
      ],
      "stateMutability": "view",
      "type": "function"
    },
    {
      "inputs": [
        {
          "internalType": "bytes32",
          "name": "role",
          "type": "bytes32"
        }
      ],
      "name": "getRoleAdmin",
      "outputs": [
        {
          "internalType": "bytes32",
          "name": "",
          "type": "bytes32"
        }
      ],
      "stateMutability": "view",
      "type": "function"
    },
    {
      "inputs": [
        {
          "internalType": "bytes32",
          "name": "role",
          "type": "bytes32"
        },
        {
          "internalType": "uint256",
          "name": "index",
          "type": "uint256"
        }
      ],
      "name": "getRoleMember",
      "outputs": [
        {
          "internalType": "address",
          "name": "",
          "type": "address"
        }
      ],
      "stateMutability": "view",
      "type": "function"
    },
    {
      "inputs": [
        {
          "internalType": "bytes32",
          "name": "role",
          "type": "bytes32"
        }
      ],
      "name": "getRoleMemberCount",
      "outputs": [
        {
          "internalType": "uint256",
          "name": "",
          "type": "uint256"
        }
      ],
      "stateMutability": "view",
      "type": "function"
    },
    {
      "inputs": [
        {
          "internalType": "bytes32",
          "name": "role",
          "type": "bytes32"
        },
        {
          "internalType": "address",
          "name": "account",
          "type": "address"
        }
      ],
      "name": "grantRole",
      "outputs": [],
      "stateMutability": "nonpayable",
      "type": "function"
    },
    {
      "inputs": [
        {
          "internalType": "bytes32",
          "name": "role",
          "type": "bytes32"
        },
        {
          "internalType": "address",
          "name": "account",
          "type": "address"
        }
      ],
      "name": "hasRole",
      "outputs": [
        {
          "internalType": "bool",
          "name": "",
          "type": "bool"
        }
      ],
      "stateMutability": "view",
      "type": "function"
    },
    {
      "inputs": [
        {
          "internalType": "bytes32",
          "name": "role",
          "type": "bytes32"
        },
        {
          "internalType": "address",
          "name": "account",
          "type": "address"
        }
      ],
      "name": "renounceRole",
      "outputs": [],
      "stateMutability": "nonpayable",
      "type": "function"
    },
    {
      "inputs": [
        {
          "internalType": "bytes32",
          "name": "role",
          "type": "bytes32"
        },
        {
          "internalType": "address",
          "name": "account",
          "type": "address"
        }
      ],
      "name": "revokeRole",
      "outputs": [],
      "stateMutability": "nonpayable",
      "type": "function"
    },
    {
      "inputs": [
        {
          "internalType": "bytes4",
          "name": "interfaceId",
          "type": "bytes4"
        }
      ],
      "name": "supportsInterface",
      "outputs": [
        {
          "internalType": "bool",
          "name": "",
          "type": "bool"
        }
      ],
      "stateMutability": "view",
      "type": "function"
    },
    {
      "inputs": [
        {
          "internalType": "address",
          "name": "userAddress",
          "type": "address"
        },
        {
          "internalType": "uint256",
          "name": "reservedSpace",
          "type": "uint256"
        }
      ],
      "name": "reserveSpace",
      "outputs": [],
      "stateMutability": "nonpayable",
      "type": "function"
    },
    {
      "inputs": [
        {
          "internalType": "string",
          "name": "directoryPath",
          "type": "string"
        }
      ],
      "name": "createDirectory",
      "outputs": [],
      "stateMutability": "nonpayable",
      "type": "function"
    },
    {
      "inputs": [
        {
          "internalType": "string",
          "name": "directoryPath",
          "type": "string"
        }
      ],
      "name": "deleteDirectory",
      "outputs": [],
      "stateMutability": "nonpayable",
      "type": "function"
    },
    {
      "inputs": [
        {
          "internalType": "string",
          "name": "filePath",
          "type": "string"
        },
        {
          "internalType": "uint256",
          "name": "fileSize",
          "type": "uint256"
        }
      ],
      "name": "startUpload",
      "outputs": [],
      "stateMutability": "nonpayable",
      "type": "function"
    },
    {
      "inputs": [
        {
          "internalType": "string",
          "name": "filePath",
          "type": "string"
        },
        {
          "internalType": "uint256",
          "name": "position",
          "type": "uint256"
        },
        {
          "internalType": "bytes",
          "name": "data",
          "type": "bytes"
        }
      ],
      "name": "uploadChunk",
      "outputs": [],
      "stateMutability": "nonpayable",
      "type": "function"
    },
    {
      "inputs": [
        {
          "internalType": "string",
          "name": "filePath",
          "type": "string"
        }
      ],
      "name": "finishUpload",
      "outputs": [],
      "stateMutability": "nonpayable",
      "type": "function"
    },
    {
      "inputs": [
        {
          "internalType": "string",
          "name": "filePath",
          "type": "string"
        }
      ],
      "name": "deleteFile",
      "outputs": [],
      "stateMutability": "nonpayable",
      "type": "function"
    },
    {
      "inputs": [
        {
          "internalType": "string",
          "name": "storagePath",
          "type": "string"
        },
        {
          "internalType": "uint256",
          "name": "position",
          "type": "uint256"
        },
        {
          "internalType": "uint256",
          "name": "length",
          "type": "uint256"
        }
      ],
      "name": "readChunk",
      "outputs": [
        {
          "internalType": "bytes32[32768]",
          "name": "chunk",
          "type": "bytes32[32768]"
        }
      ],
      "stateMutability": "view",
      "type": "function"
    },
    {
      "inputs": [
        {
          "internalType": "string",
          "name": "storagePath",
          "type": "string"
        }
      ],
      "name": "listDirectory",
      "outputs": [
        {
          "components": [
            {
              "internalType": "string",
              "name": "name",
              "type": "string"
            },
            {
              "internalType": "bool",
              "name": "isFile",
              "type": "bool"
            },
            {
              "internalType": "uint256",
              "name": "size",
              "type": "uint256"
            },
            {
              "internalType": "enum FileStorage.FileStatus",
              "name": "status",
              "type": "uint8"
            },
            {
              "internalType": "bool[]",
              "name": "isChunkUploaded",
              "type": "bool[]"
            }
          ],
          "internalType": "struct FileStorage.ContentInfo[]",
          "name": "",
          "type": "tuple[]"
        }
      ],
      "stateMutability": "view",
      "type": "function"
    },
    {
      "inputs": [
        {
          "internalType": "string",
          "name": "storagePath",
          "type": "string"
        }
      ],
      "name": "getFileStatus",
      "outputs": [
        {
          "internalType": "enum FileStorage.FileStatus",
          "name": "",
          "type": "uint8"
        }
      ],
      "stateMutability": "view",
      "type": "function"
    },
    {
      "inputs": [
        {
          "internalType": "string",
          "name": "storagePath",
          "type": "string"
        }
      ],
      "name": "getFileSize",
      "outputs": [
        {
          "internalType": "uint256",
          "name": "fileSize",
          "type": "uint256"
        }
      ],
      "stateMutability": "view",
      "type": "function"
    },
    {
      "inputs": [],
      "name": "getTotalStorageSpace",
      "outputs": [
        {
          "internalType": "uint256",
          "name": "",
          "type": "uint256"
        }
      ],
      "stateMutability": "view",
      "type": "function"
    },
    {
      "inputs": [],
      "name": "getTotalReservedSpace",
      "outputs": [
        {
          "internalType": "uint256",
          "name": "",
          "type": "uint256"
        }
      ],
      "stateMutability": "view",
      "type": "function"
    },
    {
      "inputs": [
        {
          "internalType": "address",
          "name": "owner",
          "type": "address"
        }
      ],
      "name": "getReservedSpace",
      "outputs": [
        {
          "internalType": "uint256",
          "name": "",
          "type": "uint256"
        }
      ],
      "stateMutability": "view",
      "type": "function"
    },
    {
      "inputs": [
        {
          "internalType": "address",
          "name": "owner",
          "type": "address"
        }
      ],
      "name": "getOccupiedSpace",
      "outputs": [
        {
          "internalType": "uint256",
          "name": "",
          "type": "uint256"
        }
      ],
      "stateMutability": "view",
      "type": "function"
    },
    {
      "inputs": [],
      "name": "getMaxContentCount",
      "outputs": [
        {
          "internalType": "uint256",
          "name": "",
          "type": "uint256"
        }
      ],
      "stateMutability": "view",
      "type": "function"
    },
    {
      "inputs": [],
      "name": "getMaxChunkSize",
      "outputs": [
        {
          "internalType": "uint256",
          "name": "",
          "type": "uint256"
        }
      ],
      "stateMutability": "view",
      "type": "function"
    }
  ],
  "bytecode": "0x6080604052600060cc5534801561001557600080fd5b50617a6d80620000266000396000f3fe608060405234801561001057600080fd5b50600436106101f05760003560e01c806391d148541161010f578063c81cbaa1116100a2578063e55a402211610071578063e55a4022146105ef578063e99e0af31461060d578063f726730a1461062b578063f9bea4bf14610649576101f0565b8063c81cbaa114610567578063ca15c87314610585578063d547741f146105b5578063dbf2512d146105d1576101f0565b8063a6a04e81116100de578063a6a04e81146104cd578063a9910054146104eb578063b573212214610507578063bb559d1614610537576101f0565b806391d14854146104335780639559a09f146104635780639a9a559314610493578063a217fddf146104af576101f0565b806336568abe1161018757806381a8235a1161015657806381a8235a14610399578063827da79c146103b557806385aeeb17146103d35780639010d07c14610403576101f0565b806336568abe1461031357806361e46db51461032f578063710305b41461034b57806379210e8e14610369576101f0565b80631cfe4e3b116101c35780631cfe4e3b1461028d578063208a1b6d146102a9578063248a9ca3146102c75780632f2ff15d146102f7576101f0565b806301ffc9a7146101f557806307c6e7d314610225578063122f4fba146102415780631c6ec7a914610271575b600080fd5b61020f600480360381019061020a9190615b45565b610667565b60405161021c9190615b8d565b60405180910390f35b61023f600480360381019061023a9190615c0d565b6106e1565b005b61025b60048036038101906102569190615c0d565b610e6e565b6040516102689190615cd1565b60405180910390f35b61028b60048036038101906102869190615c0d565b611230565b005b6102a760048036038101906102a29190615d80565b6118c3565b005b6102b1611abe565b6040516102be9190615dcf565b60405180910390f35b6102e160048036038101906102dc9190615e20565b611ad1565b6040516102ee9190615e5c565b60405180910390f35b610311600480360381019061030c9190615e77565b611af1565b005b61032d60048036038101906103289190615e77565b611b25565b005b61034960048036038101906103449190615f0d565b611b59565b005b610353611ed2565b6040516103609190615dcf565b60405180910390f35b610383600480360381019061037e9190615fa2565b611ed9565b60405161039091906160c2565b60405180910390f35b6103b360048036038101906103ae9190615c0d565b612231565b005b6103bd612476565b6040516103ca9190615dcf565b60405180910390f35b6103ed60048036038101906103e89190615c0d565b61247c565b6040516103fa9190616393565b60405180910390f35b61041d600480360381019061041891906163b5565b6127ce565b60405161042a9190616404565b60405180910390f35b61044d60048036038101906104489190615e77565b6127fd565b60405161045a9190615b8d565b60405180910390f35b61047d6004803603810190610478919061641f565b612868565b60405161048a9190615dcf565b60405180910390f35b6104ad60048036038101906104a8919061644c565b6128b1565b005b6104b7612f81565b6040516104c49190615e5c565b60405180910390f35b6104d5612f88565b6040516104e29190615dcf565b60405180910390f35b61050560048036038101906105009190615c0d565b612f92565b005b610521600480360381019061051c9190615c0d565b613766565b60405161052e9190615dcf565b60405180910390f35b610551600480360381019061054c919061641f565b613a3f565b60405161055e9190615dcf565b60405180910390f35b61056f613a88565b60405161057c9190615e5c565b60405180910390f35b61059f600480360381019061059a9190615e20565b613aac565b6040516105ac9190615dcf565b60405180910390f35b6105cf60048036038101906105ca9190615e77565b613ad0565b005b6105d9613b04565b6040516105e69190615dcf565b60405180910390f35b6105f7613b1b565b6040516106049190615dcf565b60405180910390f35b610615613b20565b6040516106229190615dcf565b60405180910390f35b610633613b2f565b6040516106409190615dcf565b60405180910390f35b610651613b39565b60405161065e9190615e5c565b60405180910390f35b60007f5a05180f000000000000000000000000000000000000000000000000000000007bffffffffffffffffffffffffffffffffffffffffffffffffffffffff1916827bffffffffffffffffffffffffffffffffffffffffffffffffffffffff191614806106da57506106d982613b5d565b5b9050919050565b6000339050600061073584848080601f016020809104026020016040519081016040528093929190818152602001838380828437600081840152601f19601f82011690508083019250505050505050613bd7565b9050600060cb60008473ffffffffffffffffffffffffffffffffffffffff1673ffffffffffffffffffffffffffffffffffffffff16815260200190815260200160002090506000600190505b825181101561086c576000826001018460018461079e91906164db565b815181106107af576107ae61650f565b5b60200260200101516040516107c4919061657a565b90815260200160405180910390205411610813576040517f08c379a000000000000000000000000000000000000000000000000000000000815260040161080a906165ee565b60405180910390fd5b816002018360018361082591906164db565b815181106108365761083561650f565b5b602002602001015160405161084b919061657a565b90815260200160405180910390209150806108659061660e565b9050610781565b50600060018351116108c25785858080601f016020809104026020016040519081016040528093929190818152602001838380828437600081840152601f19601f820116905080830192505050505050506108eb565b82600184516108d191906164db565b815181106108e2576108e161650f565b5b60200260200101515b905060008260010182604051610901919061657a565b90815260200160405180910390205411610950576040517f08c379a0000000000000000000000000000000000000000000000000000000008152600401610947906165ee565b60405180910390fd5b60008260020182604051610964919061657a565b908152602001604051809103902060000180549050146109b9576040517f08c379a00000000000000000000000000000000000000000000000000000000081526004016109b0906166a3565b60405180910390fd5b6000610a098588888080601f016020809104026020016040519081016040528093929190818152602001838380828437600081840152601f19601f82011690508083019250505050505050613e63565b905080610a4b576040517f08c379a0000000000000000000000000000000000000000000000000000000008152600401610a429061670f565b60405180910390fd5b60008360000160018560000180549050610a6591906164db565b81548110610a7657610a7561650f565b5b90600052602060002090600502016040518060a0016040529081600082018054610a9f9061675e565b80601f0160208091040260200160405190810160405280929190818152602001828054610acb9061675e565b8015610b185780601f10610aed57610100808354040283529160200191610b18565b820191906000526020600020905b815481529060010190602001808311610afb57829003601f168201915b505050505081526020016001820160009054906101000a900460ff16151515158152602001600282015481526020016003820160009054906101000a900460ff166002811115610b6b57610b6a615c5a565b5b6002811115610b7d57610b7c615c5a565b5b815260200160048201805480602002602001604051908101604052809291908181526020018280548015610bf557602002820191906000526020600020906000905b82829054906101000a900460ff16151581526020019060010190602082600001049283019260010382029150808411610bbf5790505b5050505050815250509050808460000160018660010186604051610c19919061657a565b908152602001604051809103902054610c3291906164db565b81548110610c4357610c4261650f565b5b90600052602060002090600502016000820151816000019080519060200190610c6d929190615868565b5060208201518160010160006101000a81548160ff0219169083151502179055506040820151816002015560608201518160030160006101000a81548160ff02191690836002811115610cc357610cc2615c5a565b5b02179055506080820151816004019080519060200190610ce49291906158ee565b509050508360010183604051610cfa919061657a565b908152602001604051809103902054846001018260000151604051610d1f919061657a565b90815260200160405180910390208190555060008460010184604051610d45919061657a565b90815260200160405180910390208190555083600001805480610d6b57610d6a616790565b5b600190038181906000526020600020906005020160008082016000610d909190615994565b6001820160006101000a81549060ff021916905560028201600090556003820160006101000a81549060ff0219169055600482016000610dd091906159d4565b505090558360020183604051610de6919061657a565b908152602001604051809103902060008082016000610e0591906159fc565b5050610e0f613ed6565b60ca60008873ffffffffffffffffffffffffffffffffffffffff1673ffffffffffffffffffffffffffffffffffffffff1681526020019081526020016000206000828254610e5d91906164db565b925050819055505050505050505050565b6000806000610ec085858080601f016020809104026020016040519081016040528093929190818152602001838380828437600081840152601f19601f82011690508083019250505050505050613ee0565b915091506000610ecf82613bd7565b9050600060cb60008573ffffffffffffffffffffffffffffffffffffffff1673ffffffffffffffffffffffffffffffffffffffff16815260200190815260200160002090506000600190505b8251811015610fda5760008260010184600184610f3891906164db565b81518110610f4957610f4861650f565b5b6020026020010151604051610f5e919061657a565b9081526020016040518091039020541415610f815760009550505050505061122a565b8160020183600183610f9391906164db565b81518110610fa457610fa361650f565b5b6020026020010151604051610fb9919061657a565b9081526020016040518091039020915080610fd39061660e565b9050610f1b565b5060006001835111610fec5783611015565b8260018451610ffb91906164db565b8151811061100c5761100b61650f565b5b60200260200101515b90506000826001018260405161102b919061657a565b908152602001604051809103902054141561104e5760009550505050505061122a565b60008260000160018460010184604051611068919061657a565b90815260200160405180910390205461108191906164db565b815481106110925761109161650f565b5b90600052602060002090600502016040518060a00160405290816000820180546110bb9061675e565b80601f01602080910402602001604051908101604052809291908181526020018280546110e79061675e565b80156111345780601f1061110957610100808354040283529160200191611134565b820191906000526020600020905b81548152906001019060200180831161111757829003601f168201915b505050505081526020016001820160009054906101000a900460ff16151515158152602001600282015481526020016003820160009054906101000a900460ff16600281111561118757611186615c5a565b5b600281111561119957611198615c5a565b5b81526020016004820180548060200260200160405190810160405280929190818152602001828054801561121157602002820191906000526020600020906000905b82829054906101000a900460ff161515815260200190600101906020826000010492830192600103820291508084116111db5790505b5050505050815250509050806060015196505050505050505b92915050565b6000339050600061123f613ed6565b905060c960008373ffffffffffffffffffffffffffffffffffffffff1673ffffffffffffffffffffffffffffffffffffffff1681526020019081526020016000205460ca60008473ffffffffffffffffffffffffffffffffffffffff1673ffffffffffffffffffffffffffffffffffffffff16815260200190815260200160002054826112cc91906167bf565b111561130d576040517f08c379a000000000000000000000000000000000000000000000000000000000815260040161130490616861565b60405180910390fd5b60008484905011611353576040517f08c379a000000000000000000000000000000000000000000000000000000000815260040161134a906165ee565b60405180910390fd5b60006113a285858080601f016020809104026020016040519081016040528093929190818152602001838380828437600081840152601f19601f82011690508083019250505050505050613bd7565b9050600060cb60008573ffffffffffffffffffffffffffffffffffffffff1673ffffffffffffffffffffffffffffffffffffffff16815260200190815260200160002090506000600190505b82518110156114d9576000826001018460018461140b91906164db565b8151811061141c5761141b61650f565b5b6020026020010151604051611431919061657a565b90815260200160405180910390205411611480576040517f08c379a0000000000000000000000000000000000000000000000000000000008152600401611477906165ee565b60405180910390fd5b816002018360018361149291906164db565b815181106114a3576114a261650f565b5b60200260200101516040516114b8919061657a565b90815260200160405180910390209150806114d29061660e565b90506113ee565b506114e2612f88565b81600001805490501061152a576040517f08c379a0000000000000000000000000000000000000000000000000000000008152600401611521906168cd565b60405180910390fd5b6000600183511161157f5786868080601f016020809104026020016040519081016040528093929190818152602001838380828437600081840152601f19601f820116905080830192505050505050506115a8565b826001845161158e91906164db565b8151811061159f5761159e61650f565b5b60200260200101515b9050600082600101826040516115be919061657a565b9081526020016040518091039020541461160d576040517f08c379a000000000000000000000000000000000000000000000000000000000815260040161160490616939565b60405180910390fd5b6116168161434e565b611655576040517f08c379a000000000000000000000000000000000000000000000000000000000815260040161164c906169a5565b60405180910390fd5b60006116a58689898080601f016020809104026020016040519081016040528093929190818152602001838380828437600081840152601f19601f8201169050808301925050505050505061452b565b9050806116e7576040517f08c379a00000000000000000000000000000000000000000000000000000000081526004016116de90616a11565b60405180910390fd5b60006040518060a00160405280848152602001600015158152602001600081526020016000600281111561171e5761171d615c5a565b5b8152602001600067ffffffffffffffff81111561173e5761173d616a31565b5b60405190808252806020026020018201604052801561176c5781602001602082028036833780820191505090505b5081525090508360000181908060018154018082558091505060019003906000526020600020906005020160009091909190915060008201518160000190805190602001906117bc929190615868565b5060208201518160010160006101000a81548160ff0219169083151502179055506040820151816002015560608201518160030160006101000a81548160ff0219169083600281111561181257611811615c5a565b5b021790555060808201518160040190805190602001906118339291906158ee565b50505083600001805490508460010184604051611850919061657a565b9081526020016040518091039020819055508560ca60008973ffffffffffffffffffffffffffffffffffffffff1673ffffffffffffffffffffffffffffffffffffffff16815260200190815260200160002060008282546118b191906167bf565b92505081905550505050505050505050565b6118ed7f68bf109b95a5c15fb2bb99041323c27d15f8675e11bf7420a1cd6ad64c394f46336127fd565b61192c576040517f08c379a000000000000000000000000000000000000000000000000000000000815260040161192390616ad2565b60405180910390fd5b8060ca60008473ffffffffffffffffffffffffffffffffffffffff1673ffffffffffffffffffffffffffffffffffffffff1681526020019081526020016000205411156119ae576040517f08c379a00000000000000000000000000000000000000000000000000000000081526004016119a590616b64565b60405180910390fd5b6119b661459e565b60cc54826119c491906167bf565b1115611a05576040517f08c379a00000000000000000000000000000000000000000000000000000000081526004016119fc90616bf6565b60405180910390fd5b60c960008373ffffffffffffffffffffffffffffffffffffffff1673ffffffffffffffffffffffffffffffffffffffff1681526020019081526020016000205460cc6000828254611a5691906164db565b925050819055508060c960008473ffffffffffffffffffffffffffffffffffffffff1673ffffffffffffffffffffffffffffffffffffffff168152602001908152602001600020819055508060cc6000828254611ab391906167bf565b925050819055505050565b621000006064611ace9190616c16565b81565b600060656000838152602001908152602001600020600101549050919050565b611afb82826145d2565b611b2081609760008581526020019081526020016000206145fb90919063ffffffff16565b505050565b611b2f828261462b565b611b5481609760008581526020019081526020016000206146ae90919063ffffffff16565b505050565b60003390506000611bae8288888080601f016020809104026020016040519081016040528093929190818152602001838380828437600081840152601f19601f820116905080830192505050505050506146de565b905060016002811115611bc457611bc3615c5a565b5b8160030160009054906101000a900460ff166002811115611be857611be7615c5a565b5b14611c28576040517f08c379a0000000000000000000000000000000000000000000000000000000008152600401611c1f90616cbc565b60405180910390fd5b6000611c32613b04565b86611c3d9190616d0b565b148015611c4d5750806002015485105b611c8c576040517f08c379a0000000000000000000000000000000000000000000000000000000008152600401611c8390616d88565b60405180910390fd5b611c94613b04565b858260020154611ca491906164db565b108015611cc25750848160020154611cbc91906164db565b84849050145b80611cd65750611cd0613b04565b84849050145b611d15576040517f08c379a0000000000000000000000000000000000000000000000000000000008152600401611d0c90616df4565b60405180910390fd5b80600401611d21613b04565b86611d2c9190616e14565b81548110611d3d57611d3c61650f565b5b90600052602060002090602091828204019190069054906101000a900460ff1615611d9d576040517f08c379a0000000000000000000000000000000000000000000000000000000008152600401611d9490616e91565b60405180910390fd5b6000611e338389898080601f016020809104026020016040519081016040528093929190818152602001838380828437600081840152601f19601f820116905080830192505050505050508888888080601f016020809104026020016040519081016040528093929190818152602001838380828437600081840152601f19601f82011690508083019250505050505050614922565b905080611e75576040517f08c379a0000000000000000000000000000000000000000000000000000000008152600401611e6c90616efd565b60405180910390fd5b600182600401611e83613b04565b88611e8e9190616e14565b81548110611e9f57611e9e61650f565b5b90600052602060002090602091828204019190066101000a81548160ff0219169083151502179055505050505050505050565b6210000081565b611ee1615a20565b600080611f3187878080601f016020809104026020016040519081016040528093929190818152602001838380828437600081840152601f19601f82011690508083019250505050505050613ee0565b915091506000611f4183836146de565b6040518060a0016040529081600082018054611f5c9061675e565b80601f0160208091040260200160405190810160405280929190818152602001828054611f889061675e565b8015611fd55780601f10611faa57610100808354040283529160200191611fd5565b820191906000526020600020905b815481529060010190602001808311611fb857829003601f168201915b505050505081526020016001820160009054906101000a900460ff16151515158152602001600282015481526020016003820160009054906101000a900460ff16600281111561202857612027615c5a565b5b600281111561203a57612039615c5a565b5b8152602001600482018054806020026020016040519081016040528092919081815260200182805480156120b257602002820191906000526020600020906000905b82829054906101000a900460ff1615158152602001906001019060208260000104928301926001038202915080841161207c5790505b50505050508152505090506002808111156120d0576120cf615c5a565b5b816060015160028111156120e7576120e6615c5a565b5b14612127576040517f08c379a000000000000000000000000000000000000000000000000000000000815260040161211e90616f69565b60405180910390fd5b61212f613b04565b851115801561213e5750600085115b61217d576040517f08c379a000000000000000000000000000000000000000000000000000000000815260040161217490616df4565b60405180910390fd5b8060400151858761218e91906167bf565b11156121cf576040517f08c379a00000000000000000000000000000000000000000000000000000000081526004016121c690616d88565b60405180910390fd5b60006121dd848489896149f1565b809650819250505080612225576040517f08c379a000000000000000000000000000000000000000000000000000000000815260040161221c90616fd5565b60405180910390fd5b50505050949350505050565b600033905060006122868285858080601f016020809104026020016040519081016040528093929190818152602001838380828437600081840152601f19601f820116905080830192505050505050506146de565b90506001600281111561229c5761229b615c5a565b5b8160030160009054906101000a900460ff1660028111156122c0576122bf615c5a565b5b14612300576040517f08c379a00000000000000000000000000000000000000000000000000000000081526004016122f790616cbc565b60405180910390fd5b60006001905060008260040180549050905060005b8181101561236d578360040181815481106123335761233261650f565b5b90600052602060002090602091828204019190069054906101000a900460ff1661235c57600092505b806123669061660e565b9050612315565b50816123ae576040517f08c379a00000000000000000000000000000000000000000000000000000000081526004016123a590617067565b60405180910390fd5b60028360030160006101000a81548160ff021916908360028111156123d6576123d5615c5a565b5b0217905550600061242b8588888080601f016020809104026020016040519081016040528093929190818152602001838380828437600081840152601f19601f82011690508083019250505050505050614a99565b90508061246d576040517f08c379a0000000000000000000000000000000000000000000000000000000008152600401612464906170d3565b60405180910390fd5b50505050505050565b61800081565b60606000806124ce85858080601f016020809104026020016040519081016040528093929190818152602001838380828437600081840152601f19601f82011690508083019250505050505050613ee0565b9150915060006124dd82613bd7565b9050600060cb60008573ffffffffffffffffffffffffffffffffffffffff1673ffffffffffffffffffffffffffffffffffffffff168152602001908152602001600020905060005b82518110156125f8576000826001018483815181106125475761254661650f565b5b602002602001015160405161255c919061657a565b908152602001604051809103902054116125ab576040517f08c379a00000000000000000000000000000000000000000000000000000000081526004016125a2906165ee565b60405180910390fd5b816002018382815181106125c2576125c161650f565b5b60200260200101516040516125d7919061657a565b90815260200160405180910390209150806125f19061660e565b9050612525565b5080600001805480602002602001604051908101604052809291908181526020016000905b828210156127be57838290600052602060002090600502016040518060a00160405290816000820180546126509061675e565b80601f016020809104026020016040519081016040528092919081815260200182805461267c9061675e565b80156126c95780601f1061269e576101008083540402835291602001916126c9565b820191906000526020600020905b8154815290600101906020018083116126ac57829003601f168201915b505050505081526020016001820160009054906101000a900460ff16151515158152602001600282015481526020016003820160009054906101000a900460ff16600281111561271c5761271b615c5a565b5b600281111561272e5761272d615c5a565b5b8152602001600482018054806020026020016040519081016040528092919081815260200182805480156127a657602002820191906000526020600020906000905b82829054906101000a900460ff161515815260200190600101906020826000010492830192600103820291508084116127705790505b5050505050815250508152602001906001019061261d565b5050505094505050505092915050565b60006127f58260976000868152602001908152602001600020614b0c90919063ffffffff16565b905092915050565b60006065600084815260200190815260200160002060000160008373ffffffffffffffffffffffffffffffffffffffff1673ffffffffffffffffffffffffffffffffffffffff16815260200190815260200160002060009054906101000a900460ff16905092915050565b600060ca60008373ffffffffffffffffffffffffffffffffffffffff1673ffffffffffffffffffffffffffffffffffffffff168152602001908152602001600020549050919050565b600033905060006128c183614b26565b90506210000060646128d39190616c16565b831115612915576040517f08c379a000000000000000000000000000000000000000000000000000000000815260040161290c9061713f565b60405180910390fd5b60c960008373ffffffffffffffffffffffffffffffffffffffff1673ffffffffffffffffffffffffffffffffffffffff1681526020019081526020016000205460ca60008473ffffffffffffffffffffffffffffffffffffffff1673ffffffffffffffffffffffffffffffffffffffff16815260200190815260200160002054826129a091906167bf565b11156129e1576040517f08c379a00000000000000000000000000000000000000000000000000000000081526004016129d890616861565b60405180910390fd5b6000612a3086868080601f016020809104026020016040519081016040528093929190818152602001838380828437600081840152601f19601f82011690508083019250505050505050613bd7565b9050600060cb60008573ffffffffffffffffffffffffffffffffffffffff1673ffffffffffffffffffffffffffffffffffffffff16815260200190815260200160002090506000600190505b8251811015612b675760008260010184600184612a9991906164db565b81518110612aaa57612aa961650f565b5b6020026020010151604051612abf919061657a565b90815260200160405180910390205411612b0e576040517f08c379a0000000000000000000000000000000000000000000000000000000008152600401612b05906165ee565b60405180910390fd5b8160020183600183612b2091906164db565b81518110612b3157612b3061650f565b5b6020026020010151604051612b46919061657a565b9081526020016040518091039020915080612b609061660e565b9050612a7c565b50612b70612f88565b816000018054905010612bb8576040517f08c379a0000000000000000000000000000000000000000000000000000000008152600401612baf906168cd565b60405180910390fd5b60006001835111612c0d5787878080601f016020809104026020016040519081016040528093929190818152602001838380828437600081840152601f19601f82011690508083019250505050505050612c36565b8260018451612c1c91906164db565b81518110612c2d57612c2c61650f565b5b60200260200101515b905060008260010182604051612c4c919061657a565b90815260200160405180910390205414612c9b576040517f08c379a0000000000000000000000000000000000000000000000000000000008152600401612c9290616939565b60405180910390fd5b612ca48161434e565b612ce3576040517f08c379a0000000000000000000000000000000000000000000000000000000008152600401612cda906171ab565b60405180910390fd5b6000612d34868a8a8080601f016020809104026020016040519081016040528093929190818152602001838380828437600081840152601f19601f8201169050808301925050505050505089614b64565b905080612d76576040517f08c379a0000000000000000000000000000000000000000000000000000000008152600401612d6d90617217565b60405180910390fd5b6000612d80613b04565b6001612d8a613b04565b8a612d9591906167bf565b612d9f91906164db565b612da99190616e14565b67ffffffffffffffff811115612dc257612dc1616a31565b5b604051908082528060200260200182016040528015612df05781602001602082028036833780820191505090505b509050836000016040518060a001604052808581526020016001151581526020018a815260200160016002811115612e2b57612e2a615c5a565b5b81526020018381525090806001815401808255809150506001900390600052602060002090600502016000909190919091506000820151816000019080519060200190612e79929190615868565b5060208201518160010160006101000a81548160ff0219169083151502179055506040820151816002015560608201518160030160006101000a81548160ff02191690836002811115612ecf57612ece615c5a565b5b02179055506080820151816004019080519060200190612ef09291906158ee565b50505083600001805490508460010184604051612f0d919061657a565b9081526020016040518091039020819055508560ca60008973ffffffffffffffffffffffffffffffffffffffff1673ffffffffffffffffffffffffffffffffffffffff1681526020019081526020016000206000828254612f6e91906167bf565b9250508190555050505050505050505050565b6000801b81565b6000612000905090565b60003390506000612fe78285858080601f016020809104026020016040519081016040528093929190818152602001838380828437600081840152601f19601f820116905080830192505050505050506146de565b6040518060a00160405290816000820180546130029061675e565b80601f016020809104026020016040519081016040528092919081815260200182805461302e9061675e565b801561307b5780601f106130505761010080835404028352916020019161307b565b820191906000526020600020905b81548152906001019060200180831161305e57829003601f168201915b505050505081526020016001820160009054906101000a900460ff16151515158152602001600282015481526020016003820160009054906101000a900460ff1660028111156130ce576130cd615c5a565b5b60028111156130e0576130df615c5a565b5b81526020016004820180548060200260200160405190810160405280929190818152602001828054801561315857602002820191906000526020600020906000905b82829054906101000a900460ff161515815260200190600101906020826000010492830192600103820291508084116131225790505b50505050508152505090506000600281111561317757613176615c5a565b5b8160600151600281111561318e5761318d615c5a565b5b14156131cf576040517f08c379a00000000000000000000000000000000000000000000000000000000081526004016131c690617283565b60405180910390fd5b600061321f8386868080601f016020809104026020016040519081016040528093929190818152602001838380828437600081840152601f19601f82011690508083019250505050505050614be0565b905080613261576040517f08c379a0000000000000000000000000000000000000000000000000000000008152600401613258906172ef565b60405180910390fd5b60006132b086868080601f016020809104026020016040519081016040528093929190818152602001838380828437600081840152601f19601f82011690508083019250505050505050613bd7565b9050600060cb60008673ffffffffffffffffffffffffffffffffffffffff1673ffffffffffffffffffffffffffffffffffffffff16815260200190815260200160002090506000600190505b825181101561335e57816002018360018361331791906164db565b815181106133285761332761650f565b5b602002602001015160405161333d919061657a565b90815260200160405180910390209150806133579061660e565b90506132fc565b5060006001826001018660000151604051613379919061657a565b90815260200160405180910390205461339291906164db565b9050600082600001600184600001805490506133ae91906164db565b815481106133bf576133be61650f565b5b90600052602060002090600502016040518060a00160405290816000820180546133e89061675e565b80601f01602080910402602001604051908101604052809291908181526020018280546134149061675e565b80156134615780601f1061343657610100808354040283529160200191613461565b820191906000526020600020905b81548152906001019060200180831161344457829003601f168201915b505050505081526020016001820160009054906101000a900460ff16151515158152602001600282015481526020016003820160009054906101000a900460ff1660028111156134b4576134b3615c5a565b5b60028111156134c6576134c5615c5a565b5b81526020016004820180548060200260200160405190810160405280929190818152602001828054801561353e57602002820191906000526020600020906000905b82829054906101000a900460ff161515815260200190600101906020826000010492830192600103820291508084116135085790505b5050505050815250509050808360000183815481106135605761355f61650f565b5b9060005260206000209060050201600082015181600001908051906020019061358a929190615868565b5060208201518160010160006101000a81548160ff0219169083151502179055506040820151816002015560608201518160030160006101000a81548160ff021916908360028111156135e0576135df615c5a565b5b021790555060808201518160040190805190602001906136019291906158ee565b509050508260000180548061361957613618616790565b5b60019003818190600052602060002090600502016000808201600061363e9190615994565b6001820160006101000a81549060ff021916905560028201600090556003820160006101000a81549060ff021916905560048201600061367e91906159d4565b50509055826001018660000151604051613698919061657a565b9081526020016040518091039020548360010182600001516040516136bd919061657a565b90815260200160405180910390208190555060008360010187600001516040516136e7919061657a565b9081526020016040518091039020819055506137068660400151614b26565b60ca60008973ffffffffffffffffffffffffffffffffffffffff1673ffffffffffffffffffffffffffffffffffffffff168152602001908152602001600020600082825461375491906164db565b92505081905550505050505050505050565b60008060006137b885858080601f016020809104026020016040519081016040528093929190818152602001838380828437600081840152601f19601f82011690508083019250505050505050613ee0565b9150915060006137c883836146de565b6040518060a00160405290816000820180546137e39061675e565b80601f016020809104026020016040519081016040528092919081815260200182805461380f9061675e565b801561385c5780601f106138315761010080835404028352916020019161385c565b820191906000526020600020905b81548152906001019060200180831161383f57829003601f168201915b505050505081526020016001820160009054906101000a900460ff16151515158152602001600282015481526020016003820160009054906101000a900460ff1660028111156138af576138ae615c5a565b5b60028111156138c1576138c0615c5a565b5b81526020016004820180548060200260200160405190810160405280929190818152602001828054801561393957602002820191906000526020600020906000905b82829054906101000a900460ff161515815260200190600101906020826000010492830192600103820291508084116139035790505b50505050508152505090506001600281111561395857613957615c5a565b5b8160600151600281111561396f5761396e615c5a565b5b14806139a2575060028081111561398957613988615c5a565b5b816060015160028111156139a05761399f615c5a565b5b145b6139e1576040517f08c379a00000000000000000000000000000000000000000000000000000000081526004016139d890616cbc565b60405180910390fd5b60006139ed8484614c53565b809650819250505080613a35576040517f08c379a0000000000000000000000000000000000000000000000000000000008152600401613a2c9061735b565b60405180910390fd5b5050505092915050565b600060c960008373ffffffffffffffffffffffffffffffffffffffff1673ffffffffffffffffffffffffffffffffffffffff168152602001908152602001600020549050919050565b7f68bf109b95a5c15fb2bb99041323c27d15f8675e11bf7420a1cd6ad64c394f4681565b6000613ac960976000848152602001908152602001600020614ccb565b9050919050565b613ada8282614ce0565b613aff81609760008581526020019081526020016000206146ae90919063ffffffff16565b505050565b6000621000006001613b169190616c16565b905090565b600081565b6000613b2a61459e565b905090565b600060cc54905090565b7f3c39c62cb61ae774091322c3a742c0553a9b766b6285c7730ebd72b6cd270fb781565b60007f7965db0b000000000000000000000000000000000000000000000000000000007bffffffffffffffffffffffffffffffffffffffffffffffffffffffff1916827bffffffffffffffffffffffffffffffffffffffffffffffffffffffff19161480613bd05750613bcf82614d09565b5b9050919050565b60606000613be483614d73565b90506000613c266040518060400160405280600181526020017f2f00000000000000000000000000000000000000000000000000000000000000815250614d73565b905060006001613c3f8385614da190919063ffffffff16565b613c4991906167bf565b67ffffffffffffffff811115613c6257613c61616a31565b5b604051908082528060200260200182016040528015613c9557816020015b6060815260200190600190039081613c805790505b50905060005b8151811015613cf057613cbf613cba8486614e4990919063ffffffff16565b614e63565b828281518110613cd257613cd161650f565b5b60200260200101819052508080613ce89061660e565b915050613c9b565b5060008160018351613d0291906164db565b81518110613d1357613d1261650f565b5b6020026020010151511415613db0578060018251613d3191906164db565b81518110613d4257613d4161650f565b5b60200260200101606081525060018151613d5c91906164db565b67ffffffffffffffff811115613d7557613d74616a31565b5b604051908082528060200260200182016040528015613da857816020015b6060815260200190600190039081613d935790505b509350613e02565b805167ffffffffffffffff811115613dcb57613dca616a31565b5b604051908082528060200260200182016040528015613dfe57816020015b6060815260200190600190039081613de95790505b5093505b60005b8451811015613e5a57818181518110613e2157613e2061650f565b5b6020026020010151858281518110613e3c57613e3b61650f565b5b60200260200101819052508080613e529061660e565b915050613e05565b50505050919050565b6000806001613e7d60208551614edf90919063ffffffff16565b613e8791906167bf565b90506040518481526020810160005b83811015613eb7578060200286015181602002830152806001019050613e96565b50602082602085026040018460006010600019f1935050505092915050565b6000611000905090565b6000606060006028905080845111613f2d576040517f08c379a0000000000000000000000000000000000000000000000000000000008152600401613f24906173c7565b60405180910390fd5b60008167ffffffffffffffff811115613f4957613f48616a31565b5b6040519080825280601f01601f191660200182016040528015613f7b5781602001600182028036833780820191505090505b50905060005b82811015613ffc57858181518110613f9c57613f9b61650f565b5b602001015160f81c60f81b828281518110613fba57613fb961650f565b5b60200101907effffffffffffffffffffffffffffffffffffffffffffffffffffffffffffff1916908160001a9053508080613ff49061660e565b915050613f81565b506000805b8381101561419857600083828151811061401e5761401d61650f565b5b602001015160f81c60f81b60f81c60ff1673ffffffffffffffffffffffffffffffffffffffff16905060308110158015614059575060398111155b806140725750604181101580156140715750605a8111155b5b8061408b57506061811015801561408a575060668111155b5b6140ca576040517f08c379a00000000000000000000000000000000000000000000000000000000081526004016140c1906173c7565b60405180910390fd5b603081101580156140dc575060398111155b15614108576030816140ee91906164db565b6010846140fb91906173e7565b6141059190617435565b92505b6041811015801561411a5750605a8111155b156141465760378161412c91906164db565b60108461413991906173e7565b6141439190617435565b92505b60618110158015614158575060668111155b156141845760578161416a91906164db565b60108461417791906173e7565b6141819190617435565b92505b5080806141909061660e565b915050614001565b508094507f2f000000000000000000000000000000000000000000000000000000000000008684815181106141d0576141cf61650f565b5b602001015160f81c60f81b7effffffffffffffffffffffffffffffffffffffffffffffffffffffffffffff19161461423d576040517f08c379a0000000000000000000000000000000000000000000000000000000008152600401614234906173c7565b60405180910390fd5b6000600184885161424e91906164db565b61425891906164db565b90508067ffffffffffffffff81111561427457614273616a31565b5b6040519080825280601f01601f1916602001820160405280156142a65781602001600182028036833780820191505090505b50945060005b8181101561434457600088600187846142c591906167bf565b6142cf91906167bf565b815181106142e0576142df61650f565b5b602001015160f81c60f81b9050808783815181106143015761430061650f565b5b60200101907effffffffffffffffffffffffffffffffffffffffffffffffffffffffffffff1916908160001a90535050808061433c9061660e565b9150506142ac565b5050505050915091565b600060405160200161435f906174cb565b6040516020818303038152906040528051906020012082604051602001614386919061657a565b6040516020818303038152906040528051906020012014806143f157506040516020016143b29061752c565b60405160208183030381529060405280519060200120826040516020016143d9919061657a565b60405160208183030381529060405280519060200120145b8061444557506040516020016144069061758d565b604051602081830303815290604052805190602001208260405160200161442d919061657a565b60405160208183030381529060405280519060200120145b80614499575060405160200161445a906175ee565b6040516020818303038152906040528051906020012082604051602001614481919061657a565b60405160208183030381529060405280519060200120145b806144ed57506040516020016144ae9061764f565b60405160208183030381529060405280519060200120826040516020016144d5919061657a565b60405160208183030381529060405280519060200120145b806144f9575060008251145b156145075760009050614526565b60008251905060ff811115614520576000915050614526565b60019150505b919050565b600080600161454560208551614edf90919063ffffffff16565b61454f91906167bf565b90506040518481526020810160005b8381101561457f57806020028601518160200283015280600101905061455e565b5060208260208502604001846000600f600019f1935050505092915050565b60006145c97f3c39c62cb61ae774091322c3a742c0553a9b766b6285c7730ebd72b6cd270fb7614f1e565b60000154905090565b6145db82611ad1565b6145ec816145e7614f28565b614f30565b6145f68383614fcd565b505050565b6000614623836000018373ffffffffffffffffffffffffffffffffffffffff1660001b6150ae565b905092915050565b614633614f28565b73ffffffffffffffffffffffffffffffffffffffff168173ffffffffffffffffffffffffffffffffffffffff16146146a0576040517f08c379a0000000000000000000000000000000000000000000000000000000008152600401614697906176d6565b60405180910390fd5b6146aa828261511e565b5050565b60006146d6836000018373ffffffffffffffffffffffffffffffffffffffff1660001b615200565b905092915050565b6000806146ea83613bd7565b9050600060cb60008673ffffffffffffffffffffffffffffffffffffffff1673ffffffffffffffffffffffffffffffffffffffff16815260200190815260200160002090506000600190505b8251811015614821576000826001018460018461475391906164db565b815181106147645761476361650f565b5b6020026020010151604051614779919061657a565b908152602001604051809103902054116147c8576040517f08c379a00000000000000000000000000000000000000000000000000000000081526004016147bf906165ee565b60405180910390fd5b81600201836001836147da91906164db565b815181106147eb576147ea61650f565b5b6020026020010151604051614800919061657a565b908152602001604051809103902091508061481a9061660e565b9050614736565b5060006001835111614833578461485c565b826001845161484291906164db565b815181106148535761485261650f565b5b60200260200101515b905060008260010182604051614872919061657a565b908152602001604051809103902054116148c1576040517f08c379a00000000000000000000000000000000000000000000000000000000081526004016148b8906165ee565b60405180910390fd5b600082600001600184600101846040516148db919061657a565b9081526020016040518091039020546148f491906164db565b815481106149055761490461650f565b5b906000526020600020906005020190508094505050505092915050565b600080600161493c60208551614edf90919063ffffffff16565b61494691906167bf565b90506000600161496160208851614edf90919063ffffffff16565b61496b91906167bf565b90506040518781526020810160005b8381101561499b57806020028901518160200283015280600101905061497a565b50868360200282015260005b848110156149cd57806020028701518185600101016020028301528060010190506149a7565b50602082848601602002606001846000600c600019f1945050505050949350505050565b60006149fb615a20565b60006001614a1460208851614edf90919063ffffffff16565b614a1e91906167bf565b90506000614a36602086614edf90919063ffffffff16565b90506040518881526020810160005b84811015614a6657806020028a015181602002830152806001019050614a45565b5083602002810188815287816020015283602002868660030160200285600a600019fa9650505050505094509492505050565b6000806001614ab360208551614edf90919063ffffffff16565b614abd91906167bf565b90506040518481526020810160005b83811015614aed578060200286015181602002830152806001019050614acc565b50602082602085026040018460006011600019f1935050505092915050565b6000614b1b8360000183615314565b60001c905092915050565b600080821415614b3a576110009050614b5f565b611000614b5261100084614edf90919063ffffffff16565b614b5c9190616c16565b90505b919050565b6000806001614b7e60208651614edf90919063ffffffff16565b614b8891906167bf565b90506040518581526020810160005b83811015614bb8578060200287015181602002830152806001019050614b97565b50846020840282015260208260208502604001846000600b600019f193505050509392505050565b6000806001614bfa60208551614edf90919063ffffffff16565b614c0491906167bf565b90506040518481526020810160005b83811015614c34578060200286015181602002830152806001019050614c13565b5060208260208502604001846000600e600019f1935050505092915050565b60008060006001614c6f60208651614edf90919063ffffffff16565b614c7991906167bf565b90506040518581526020810160005b83811015614ca9578060200287015181602002830152806001019050614c88565b506020826020850260200184600d600019fa9450815193505050509250929050565b6000614cd98260000161533f565b9050919050565b614ce982611ad1565b614cfa81614cf5614f28565b614f30565b614d04838361511e565b505050565b60007f01ffc9a7000000000000000000000000000000000000000000000000000000007bffffffffffffffffffffffffffffffffffffffffffffffffffffffff1916827bffffffffffffffffffffffffffffffffffffffffffffffffffffffff1916149050919050565b614d7b615a45565b600060208301905060405180604001604052808451815260200182815250915050919050565b6000808260000151614dc58560000151866020015186600001518760200151615350565b614dcf91906167bf565b90505b83600001518460200151614de691906167bf565b8111614e42578180614df79061660e565b9250508260000151614e31856020015183614e1291906164db565b8660000151614e2191906164db565b8386600001518760200151615350565b614e3b91906167bf565b9050614dd2565b5092915050565b614e51615a45565b614e5c838383615491565b5092915050565b60606000826000015167ffffffffffffffff811115614e8557614e84616a31565b5b6040519080825280601f01601f191660200182016040528015614eb75781602001600182028036833780820191505090505b5090506000602082019050614ed5818560200151866000015161555c565b8192505050919050565b6000808284614eee9190616d0b565b14614efa576001614efd565b60005b60ff168284614f0c9190616e14565b614f1691906167bf565b905092915050565b6000819050919050565b600033905090565b614f3a82826127fd565b614fc957614f5f8173ffffffffffffffffffffffffffffffffffffffff166014615609565b614f6d8360001c6020615609565b604051602001614f7e92919061778e565b6040516020818303038152906040526040517f08c379a0000000000000000000000000000000000000000000000000000000008152600401614fc09190617801565b60405180910390fd5b5050565b614fd782826127fd565b6150aa5760016065600084815260200190815260200160002060000160008373ffffffffffffffffffffffffffffffffffffffff1673ffffffffffffffffffffffffffffffffffffffff16815260200190815260200160002060006101000a81548160ff02191690831515021790555061504f614f28565b73ffffffffffffffffffffffffffffffffffffffff168173ffffffffffffffffffffffffffffffffffffffff16837f2f8788117e7eff1d82e926ec794901d17c78024a50270940304540a733656f0d60405160405180910390a45b5050565b60006150ba8383615845565b615113578260000182908060018154018082558091505060019003906000526020600020016000909190919091505582600001805490508360010160008481526020019081526020016000208190555060019050615118565b600090505b92915050565b61512882826127fd565b156151fc5760006065600084815260200190815260200160002060000160008373ffffffffffffffffffffffffffffffffffffffff1673ffffffffffffffffffffffffffffffffffffffff16815260200190815260200160002060006101000a81548160ff0219169083151502179055506151a1614f28565b73ffffffffffffffffffffffffffffffffffffffff168173ffffffffffffffffffffffffffffffffffffffff16837ff6391f5c32d9c69d2a47ea670b442974b53935d1edc7fd64eb21e047a839171b60405160405180910390a45b5050565b6000808360010160008481526020019081526020016000205490506000811461530857600060018261523291906164db565b905060006001866000018054905061524a91906164db565b90508181146152b957600086600001828154811061526b5761526a61650f565b5b906000526020600020015490508087600001848154811061528f5761528e61650f565b5b90600052602060002001819055508387600101600083815260200190815260200160002081905550505b856000018054806152cd576152cc616790565b5b60019003818190600052602060002001600090559055856001016000868152602001908152602001600020600090556001935050505061530e565b60009150505b92915050565b600082600001828154811061532c5761532b61650f565b5b9060005260206000200154905092915050565b600081600001805490509050919050565b6000808490506000868511615478576020851161541a576000600186602061537891906164db565b60086153849190616c16565b60026153909190617956565b61539a91906164db565b1960001b905060008186511690506000878a8a6153b791906167bf565b6153c191906164db565b905060008386511690505b82811461540c578186106153f3578a8a6153e691906167bf565b9650505050505050615489565b85806153fe9061660e565b9650508386511690506153cc565b859650505050505050615489565b60008585209050600091505b858861543291906164db565b82116154765760008684209050808214156154535783945050505050615489565b60018461546091906167bf565b935050818061546e9061660e565b925050615426565b505b868661548491906167bf565b925050505b949350505050565b615499615a45565b60006154b78560000151866020015186600001518760200151615350565b905084602001518360200181815250508460200151816154d791906164db565b836000018181525050846000015185602001516154f491906167bf565b81141561550b576000856000018181525050615551565b8360000151836000015161551f91906167bf565b8560000181815161553091906164db565b9150818152505083600001518161554791906167bf565b8560200181815250505b829150509392505050565b5b6020811061559b578151835260208361557691906167bf565b925060208261558591906167bf565b915060208161559491906164db565b905061555d565b60008082146155cf5760018260206155b391906164db565b6101006155c09190617956565b6155ca91906164db565b6155f1565b7fffffffffffffffffffffffffffffffffffffffffffffffffffffffffffffffff5b90508019835116818551168181178652505050505050565b60606000600283600261561c9190616c16565b61562691906167bf565b67ffffffffffffffff81111561563f5761563e616a31565b5b6040519080825280601f01601f1916602001820160405280156156715781602001600182028036833780820191505090505b5090507f3000000000000000000000000000000000000000000000000000000000000000816000815181106156a9576156a861650f565b5b60200101907effffffffffffffffffffffffffffffffffffffffffffffffffffffffffffff1916908160001a9053507f78000000000000000000000000000000000000000000000000000000000000008160018151811061570d5761570c61650f565b5b60200101907effffffffffffffffffffffffffffffffffffffffffffffffffffffffffffff1916908160001a9053506000600184600261574d9190616c16565b61575791906167bf565b90505b60018111156157f7577f3031323334353637383961626364656600000000000000000000000000000000600f8616601081106157995761579861650f565b5b1a60f81b8282815181106157b0576157af61650f565b5b60200101907effffffffffffffffffffffffffffffffffffffffffffffffffffffffffffff1916908160001a905350600485901c9450806157f0906179a1565b905061575a565b506000841461583b576040517f08c379a000000000000000000000000000000000000000000000000000000000815260040161583290617a17565b60405180910390fd5b8091505092915050565b600080836001016000848152602001908152602001600020541415905092915050565b8280546158749061675e565b90600052602060002090601f01602090048101928261589657600085556158dd565b82601f106158af57805160ff19168380011785556158dd565b828001600101855582156158dd579182015b828111156158dc5782518255916020019190600101906158c1565b5b5090506158ea9190615a5f565b5090565b82805482825590600052602060002090601f016020900481019282156159835791602002820160005b8382111561595457835183826101000a81548160ff0219169083151502179055509260200192600101602081600001049283019260010302615917565b80156159815782816101000a81549060ff0219169055600101602081600001049283019260010302615954565b505b5090506159909190615a5f565b5090565b5080546159a09061675e565b6000825580601f106159b257506159d1565b601f0160209004906000526020600020908101906159d09190615a5f565b5b50565b50805460008255601f0160209004906000526020600020908101906159f99190615a5f565b50565b5080546000825560050290600052602060002090810190615a1d9190615a7c565b50565b6040518062100000016040528061800090602082028036833780820191505090505090565b604051806040016040528060008152602001600081525090565b5b80821115615a78576000816000905550600101615a60565b5090565b5b80821115615adf5760008082016000615a969190615994565b6001820160006101000a81549060ff021916905560028201600090556003820160006101000a81549060ff0219169055600482016000615ad691906159d4565b50600501615a7d565b5090565b600080fd5b600080fd5b60007fffffffff0000000000000000000000000000000000000000000000000000000082169050919050565b615b2281615aed565b8114615b2d57600080fd5b50565b600081359050615b3f81615b19565b92915050565b600060208284031215615b5b57615b5a615ae3565b5b6000615b6984828501615b30565b91505092915050565b60008115159050919050565b615b8781615b72565b82525050565b6000602082019050615ba26000830184615b7e565b92915050565b600080fd5b600080fd5b600080fd5b60008083601f840112615bcd57615bcc615ba8565b5b8235905067ffffffffffffffff811115615bea57615be9615bad565b5b602083019150836001820283011115615c0657615c05615bb2565b5b9250929050565b60008060208385031215615c2457615c23615ae3565b5b600083013567ffffffffffffffff811115615c4257615c41615ae8565b5b615c4e85828601615bb7565b92509250509250929050565b7f4e487b7100000000000000000000000000000000000000000000000000000000600052602160045260246000fd5b60038110615c9a57615c99615c5a565b5b50565b6000819050615cab82615c89565b919050565b6000615cbb82615c9d565b9050919050565b615ccb81615cb0565b82525050565b6000602082019050615ce66000830184615cc2565b92915050565b600073ffffffffffffffffffffffffffffffffffffffff82169050919050565b6000615d1782615cec565b9050919050565b615d2781615d0c565b8114615d3257600080fd5b50565b600081359050615d4481615d1e565b92915050565b6000819050919050565b615d5d81615d4a565b8114615d6857600080fd5b50565b600081359050615d7a81615d54565b92915050565b60008060408385031215615d9757615d96615ae3565b5b6000615da585828601615d35565b9250506020615db685828601615d6b565b9150509250929050565b615dc981615d4a565b82525050565b6000602082019050615de46000830184615dc0565b92915050565b6000819050919050565b615dfd81615dea565b8114615e0857600080fd5b50565b600081359050615e1a81615df4565b92915050565b600060208284031215615e3657615e35615ae3565b5b6000615e4484828501615e0b565b91505092915050565b615e5681615dea565b82525050565b6000602082019050615e716000830184615e4d565b92915050565b60008060408385031215615e8e57615e8d615ae3565b5b6000615e9c85828601615e0b565b9250506020615ead85828601615d35565b9150509250929050565b60008083601f840112615ecd57615ecc615ba8565b5b8235905067ffffffffffffffff811115615eea57615ee9615bad565b5b602083019150836001820283011115615f0657615f05615bb2565b5b9250929050565b600080600080600060608688031215615f2957615f28615ae3565b5b600086013567ffffffffffffffff811115615f4757615f46615ae8565b5b615f5388828901615bb7565b95509550506020615f6688828901615d6b565b935050604086013567ffffffffffffffff811115615f8757615f86615ae8565b5b615f9388828901615eb7565b92509250509295509295909350565b60008060008060608587031215615fbc57615fbb615ae3565b5b600085013567ffffffffffffffff811115615fda57615fd9615ae8565b5b615fe687828801615bb7565b94509450506020615ff987828801615d6b565b925050604061600a87828801615d6b565b91505092959194509250565b60006180009050919050565b600081905092915050565b6000819050919050565b61604081615dea565b82525050565b60006160528383616037565b60208301905092915050565b6000602082019050919050565b61607481616016565b61607e8184616022565b92506160898261602d565b8060005b838110156160ba5781516160a18782616046565b96506160ac8361605e565b92505060018101905061608d565b505050505050565b600062100000820190506160d9600083018461606b565b92915050565b600081519050919050565b600082825260208201905092915050565b6000819050602082019050919050565b600081519050919050565b600082825260208201905092915050565b60005b8381101561614557808201518184015260208101905061612a565b83811115616154576000848401525b50505050565b6000601f19601f8301169050919050565b60006161768261610b565b6161808185616116565b9350616190818560208601616127565b6161998161615a565b840191505092915050565b6161ad81615b72565b82525050565b6161bc81615d4a565b82525050565b6161cb81615cb0565b82525050565b600081519050919050565b600082825260208201905092915050565b6000819050602082019050919050565b600061620983836161a4565b60208301905092915050565b6000602082019050919050565b600061622d826161d1565b61623781856161dc565b9350616242836161ed565b8060005b8381101561627357815161625a88826161fd565b975061626583616215565b925050600181019050616246565b5085935050505092915050565b600060a083016000830151848203600086015261629d828261616b565b91505060208301516162b260208601826161a4565b5060408301516162c560408601826161b3565b5060608301516162d860608601826161c2565b50608083015184820360808601526162f08282616222565b9150508091505092915050565b60006163098383616280565b905092915050565b6000602082019050919050565b6000616329826160df565b61633381856160ea565b935083602082028501616345856160fb565b8060005b85811015616381578484038952815161636285826162fd565b945061636d83616311565b925060208a01995050600181019050616349565b50829750879550505050505092915050565b600060208201905081810360008301526163ad818461631e565b905092915050565b600080604083850312156163cc576163cb615ae3565b5b60006163da85828601615e0b565b92505060206163eb85828601615d6b565b9150509250929050565b6163fe81615d0c565b82525050565b600060208201905061641960008301846163f5565b92915050565b60006020828403121561643557616434615ae3565b5b600061644384828501615d35565b91505092915050565b60008060006040848603121561646557616464615ae3565b5b600084013567ffffffffffffffff81111561648357616482615ae8565b5b61648f86828701615bb7565b935093505060206164a286828701615d6b565b9150509250925092565b7f4e487b7100000000000000000000000000000000000000000000000000000000600052601160045260246000fd5b60006164e682615d4a565b91506164f183615d4a565b925082821015616504576165036164ac565b5b828203905092915050565b7f4e487b7100000000000000000000000000000000000000000000000000000000600052603260045260246000fd5b600081905092915050565b60006165548261610b565b61655e818561653e565b935061656e818560208601616127565b80840191505092915050565b60006165868284616549565b915081905092915050565b600082825260208201905092915050565b7f496e76616c696420706174680000000000000000000000000000000000000000600082015250565b60006165d8600c83616591565b91506165e3826165a2565b602082019050919050565b60006020820190508181036000830152616607816165cb565b9050919050565b600061661982615d4a565b91507fffffffffffffffffffffffffffffffffffffffffffffffffffffffffffffffff82141561664c5761664b6164ac565b5b600182019050919050565b7f4469726563746f7279206973206e6f7420656d70747900000000000000000000600082015250565b600061668d601683616591565b915061669882616657565b602082019050919050565b600060208201905081810360008301526166bc81616680565b9050919050565b7f4469726563746f7279206973206e6f742064656c657465640000000000000000600082015250565b60006166f9601883616591565b9150616704826166c3565b602082019050919050565b60006020820190508181036000830152616728816166ec565b9050919050565b7f4e487b7100000000000000000000000000000000000000000000000000000000600052602260045260246000fd5b6000600282049050600182168061677657607f821691505b6020821081141561678a5761678961672f565b5b50919050565b7f4e487b7100000000000000000000000000000000000000000000000000000000600052603160045260246000fd5b60006167ca82615d4a565b91506167d583615d4a565b9250827fffffffffffffffffffffffffffffffffffffffffffffffffffffffffffffffff0382111561680a576168096164ac565b5b828201905092915050565b7f4e6f7420656e6f75676820726573657276656420737061636500000000000000600082015250565b600061684b601983616591565b915061685682616815565b602082019050919050565b6000602082019050818103600083015261687a8161683e565b9050919050565b7f4469726563746f72792069732066756c6c000000000000000000000000000000600082015250565b60006168b7601183616591565b91506168c282616881565b602082019050919050565b600060208201905081810360008301526168e6816168aa565b9050919050565b7f46696c65206f72206469726563746f7279206578697374730000000000000000600082015250565b6000616923601883616591565b915061692e826168ed565b602082019050919050565b6000602082019050818103600083015261695281616916565b9050919050565b7f496e76616c6964206469726563746f7279206e616d6500000000000000000000600082015250565b600061698f601683616591565b915061699a82616959565b602082019050919050565b600060208201905081810360008301526169be81616982565b9050919050565b7f4469726563746f7279206e6f7420637265617465640000000000000000000000600082015250565b60006169fb601583616591565b9150616a06826169c5565b602082019050919050565b60006020820190508181036000830152616a2a816169ee565b9050919050565b7f4e487b7100000000000000000000000000000000000000000000000000000000600052604160045260246000fd5b7f43616c6c6572206973206e6f7420616c6c6f77656420746f207265736572766560008201527f2073706163650000000000000000000000000000000000000000000000000000602082015250565b6000616abc602683616591565b9150616ac782616a60565b604082019050919050565b60006020820190508181036000830152616aeb81616aaf565b9050919050565b7f436f756c64206e6f742072657365727665206c657373207468616e207573656460008201527f2073706163650000000000000000000000000000000000000000000000000000602082015250565b6000616b4e602683616591565b9150616b5982616af2565b604082019050919050565b60006020820190508181036000830152616b7d81616b41565b9050919050565b7f4e6f7420656e6f756768206d656d6f727920696e207468652046696c6573746f60008201527f7261676500000000000000000000000000000000000000000000000000000000602082015250565b6000616be0602483616591565b9150616beb82616b84565b604082019050919050565b60006020820190508181036000830152616c0f81616bd3565b9050919050565b6000616c2182615d4a565b9150616c2c83615d4a565b9250817fffffffffffffffffffffffffffffffffffffffffffffffffffffffffffffffff0483118215151615616c6557616c646164ac565b5b828202905092915050565b7f46696c65206e6f7420666f756e64000000000000000000000000000000000000600082015250565b6000616ca6600e83616591565b9150616cb182616c70565b602082019050919050565b60006020820190508181036000830152616cd581616c99565b9050919050565b7f4e487b7100000000000000000000000000000000000000000000000000000000600052601260045260246000fd5b6000616d1682615d4a565b9150616d2183615d4a565b925082616d3157616d30616cdc565b5b828206905092915050565b7f496e636f7272656374206368756e6b20706f736974696f6e0000000000000000600082015250565b6000616d72601883616591565b9150616d7d82616d3c565b602082019050919050565b60006020820190508181036000830152616da181616d65565b9050919050565b7f496e636f7272656374206368756e6b206c656e67746800000000000000000000600082015250565b6000616dde601683616591565b9150616de982616da8565b602082019050919050565b60006020820190508181036000830152616e0d81616dd1565b9050919050565b6000616e1f82615d4a565b9150616e2a83615d4a565b925082616e3a57616e39616cdc565b5b828204905092915050565b7f4368756e6b20697320616c72656164792075706c6f6164656400000000000000600082015250565b6000616e7b601983616591565b9150616e8682616e45565b602082019050919050565b60006020820190508181036000830152616eaa81616e6e565b9050919050565b7f4368756e6b207761736e27742075706c6f616465640000000000000000000000600082015250565b6000616ee7601583616591565b9150616ef282616eb1565b602082019050919050565b60006020820190508181036000830152616f1681616eda565b9050919050565b7f46696c65206861736e2774206265656e2075706c6f6164656400000000000000600082015250565b6000616f53601983616591565b9150616f5e82616f1d565b602082019050919050565b60006020820190508181036000830152616f8281616f46565b9050919050565b7f4368756e6b207761736e27742072656164000000000000000000000000000000600082015250565b6000616fbf601183616591565b9150616fca82616f89565b602082019050919050565b60006020820190508181036000830152616fee81616fb2565b9050919050565b7f46696c65206861736e2774206265656e2075706c6f6164656420636f7272656360008201527f746c790000000000000000000000000000000000000000000000000000000000602082015250565b6000617051602383616591565b915061705c82616ff5565b604082019050919050565b6000602082019050818103600083015261708081617044565b9050919050565b7f48617368206861736e2774206265656e2063616c63756c617465640000000000600082015250565b60006170bd601b83616591565b91506170c882617087565b602082019050919050565b600060208201905081810360008301526170ec816170b0565b9050919050565b7f46696c652073686f756c64206265206c657373207468616e20313030204d4200600082015250565b6000617129601f83616591565b9150617134826170f3565b602082019050919050565b600060208201905081810360008301526171588161711c565b9050919050565b7f496e76616c69642066696c656e616d6500000000000000000000000000000000600082015250565b6000617195601083616591565b91506171a08261715f565b602082019050919050565b600060208201905081810360008301526171c481617188565b9050919050565b7f46696c65206e6f74206372656174656400000000000000000000000000000000600082015250565b6000617201601083616591565b915061720c826171cb565b602082019050919050565b60006020820190508181036000830152617230816171f4565b9050919050565b7f46696c65206e6f74206578697374730000000000000000000000000000000000600082015250565b600061726d600f83616591565b915061727882617237565b602082019050919050565b6000602082019050818103600083015261729c81617260565b9050919050565b7f46696c65206e6f742064656c6574656400000000000000000000000000000000600082015250565b60006172d9601083616591565b91506172e4826172a3565b602082019050919050565b60006020820190508181036000830152617308816172cc565b9050919050565b7f45564d206572726f7220696e2067657446696c6553697a650000000000000000600082015250565b6000617345601883616591565b91506173508261730f565b602082019050919050565b6000602082019050818103600083015261737481617338565b9050919050565b7f496e76616c69642073746f726167655061746800000000000000000000000000600082015250565b60006173b1601383616591565b91506173bc8261737b565b602082019050919050565b600060208201905081810360008301526173e0816173a4565b9050919050565b60006173f282615cec565b91506173fd83615cec565b92508173ffffffffffffffffffffffffffffffffffffffff048311821515161561742a576174296164ac565b5b828202905092915050565b600061744082615cec565b915061744b83615cec565b92508273ffffffffffffffffffffffffffffffffffffffff03821115617474576174736164ac565b5b828201905092915050565b7f2e2e000000000000000000000000000000000000000000000000000000000000600082015250565b60006174b560028361653e565b91506174c08261747f565b600282019050919050565b60006174d6826174a8565b9150819050919050565b7f2e00000000000000000000000000000000000000000000000000000000000000600082015250565b600061751660018361653e565b9150617521826174e0565b600182019050919050565b600061753782617509565b9150819050919050565b7f2e2f000000000000000000000000000000000000000000000000000000000000600082015250565b600061757760028361653e565b915061758282617541565b600282019050919050565b60006175988261756a565b9150819050919050565b7f2e2e2f0000000000000000000000000000000000000000000000000000000000600082015250565b60006175d860038361653e565b91506175e3826175a2565b600382019050919050565b60006175f9826175cb565b9150819050919050565b7f2f00000000000000000000000000000000000000000000000000000000000000600082015250565b600061763960018361653e565b915061764482617603565b600182019050919050565b600061765a8261762c565b9150819050919050565b7f416363657373436f6e74726f6c3a2063616e206f6e6c792072656e6f756e636560008201527f20726f6c657320666f722073656c660000000000000000000000000000000000602082015250565b60006176c0602f83616591565b91506176cb82617664565b604082019050919050565b600060208201905081810360008301526176ef816176b3565b9050919050565b7f416363657373436f6e74726f6c3a206163636f756e7420000000000000000000600082015250565b600061772c60178361653e565b9150617737826176f6565b601782019050919050565b7f206973206d697373696e6720726f6c6520000000000000000000000000000000600082015250565b600061777860118361653e565b915061778382617742565b601182019050919050565b60006177998261771f565b91506177a58285616549565b91506177b08261776b565b91506177bc8284616549565b91508190509392505050565b60006177d38261610b565b6177dd8185616591565b93506177ed818560208601616127565b6177f68161615a565b840191505092915050565b6000602082019050818103600083015261781b81846177c8565b905092915050565b60008160011c9050919050565b6000808291508390505b600185111561787a57808604811115617856576178556164ac565b5b60018516156178655780820291505b808102905061787385617823565b945061783a565b94509492505050565b600082617893576001905061794f565b816178a1576000905061794f565b81600181146178b757600281146178c1576178f0565b600191505061794f565b60ff8411156178d3576178d26164ac565b5b8360020a9150848211156178ea576178e96164ac565b5b5061794f565b5060208310610133831016604e8410600b84101617156179255782820a9050838111156179205761791f6164ac565b5b61794f565b6179328484846001617830565b92509050818404811115617949576179486164ac565b5b81810290505b9392505050565b600061796182615d4a565b915061796c83615d4a565b92506179997fffffffffffffffffffffffffffffffffffffffffffffffffffffffffffffffff8484617883565b905092915050565b60006179ac82615d4a565b915060008214156179c0576179bf6164ac565b5b600182039050919050565b7f537472696e67733a20686578206c656e67746820696e73756666696369656e74600082015250565b6000617a01602083616591565b9150617a0c826179cb565b602082019050919050565b60006020820190508181036000830152617a30816179f4565b905091905056fea26469706673582212208e6e2931c477828eb3a0026f09f16ec669f057335958aed01fb79c44b1db60bb64736f6c63430008090033",
  "immutableReferences": {},
  "source": "/*\n    FileStorage.sol - SKALE FileStorage\n    Copyright (C) 2018-Present SKALE Labs\n    @author Dmytro Nazarenko\n\n    FileStorage is free software: you can redistribute it and/or modify\n    it under the terms of the GNU Affero General Public License as published\n    by the Free Software Foundation, either version 3 of the License, or\n    (at your option) any later version.\n\n    FileStorage is distributed in the hope that it will be useful,\n    but WITHOUT ANY WARRANTY; without even the implied warranty of\n    MERCHANTABILITY or FITNESS FOR A PARTICULAR PURPOSE.  See the\n    GNU Affero General Public License for more details.\n\n    You should have received a copy of the GNU Affero General Public License\n    along with FileStorage.  If not, see <https://www.gnu.org/licenses/>.\n*/\n\npragma solidity ^0.8.9;\n\nimport \"./Utils.sol\";\nimport \"./PrecompiledCaller.sol\";\nimport \"@openzeppelin/contracts-upgradeable/access/AccessControlEnumerableUpgradeable.sol\";\nimport \"@openzeppelin/contracts-upgradeable/utils/StorageSlotUpgradeable.sol\";\n\n\ncontract FileStorage is AccessControlEnumerableUpgradeable {\n\n    bytes32 public constant ALLOCATOR_ROLE = keccak256(\"ALLOCATOR_ROLE\");\n    bytes32 public constant STORAGE_SPACE_SLOT = keccak256(\"STORAGE_SPACE_SLOT\");\n\n    uint public constant MEGABYTE = 2 ** 20;\n    uint public constant MAX_BLOCK_COUNT = 2 ** 15;\n    uint public constant EMPTY_INDEX = 0;\n\n    uint internal constant MAX_CONTENT_COUNT = 2 ** 13;\n\n    uint public constant MAX_FILESIZE = 100 * MEGABYTE;\n    uint internal constant MAX_CHUNK_SIZE = 1 * MEGABYTE;\n\n    enum FileStatus { NONEXISTENT, UPLOADING, COMPLETED }\n\n    struct ContentInfo {\n        string name;\n        bool isFile;\n        uint size;\n        FileStatus status;\n        bool[] isChunkUploaded;\n    }\n\n    struct Directory {\n        ContentInfo[] contents;\n        mapping(string => uint) contentIndexes;\n        mapping(string => Directory) directories;\n    }\n\n    mapping(address => uint) reservedStorageSpace;\n    mapping(address => uint) occupiedStorageSpace;\n    mapping(address => Directory) rootDirectories;\n    uint totalReservedSpace = 0;\n\n    function reserveSpace(address userAddress, uint reservedSpace) external {\n        require(hasRole(ALLOCATOR_ROLE, msg.sender), \"Caller is not allowed to reserve space\");\n        require(occupiedStorageSpace[userAddress] <= reservedSpace, \"Could not reserve less than used space\");\n        require(reservedSpace + totalReservedSpace <= storageSpace(), \"Not enough memory in the Filestorage\");\n        totalReservedSpace -= reservedStorageSpace[userAddress];\n        reservedStorageSpace[userAddress] = reservedSpace;\n        totalReservedSpace += reservedSpace;\n    }\n\n    function createDirectory(string calldata directoryPath) external {\n        address owner = msg.sender;\n        uint directoryFsSize = Utils.calculateDirectorySize();\n        require(directoryFsSize + occupiedStorageSpace[owner] <= reservedStorageSpace[owner], \"Not enough reserved space\");\n        require(bytes(directoryPath).length > 0, \"Invalid path\");\n        string[] memory dirs = Utils.parseDirectoryPath(directoryPath);\n        Directory storage currentDirectory = rootDirectories[owner];\n        for (uint i = 1; i < dirs.length; ++i) {\n            require(currentDirectory.contentIndexes[dirs[i - 1]] > EMPTY_INDEX, \"Invalid path\");\n            currentDirectory = currentDirectory.directories[dirs[i - 1]];\n        }\n        require(currentDirectory.contents.length < getMaxContentCount(), \"Directory is full\");\n        string memory newDir = (dirs.length > 1) ? dirs[dirs.length - 1] : directoryPath;\n        require(currentDirectory.contentIndexes[newDir] == EMPTY_INDEX, \"File or directory exists\");\n        require(Utils.checkContentName(newDir), \"Invalid directory name\");\n        bool success = PrecompiledCaller.createDirectory(owner, directoryPath);\n        require(success, \"Directory not created\");\n        ContentInfo memory directoryInfo = ContentInfo({\n            name: newDir,\n            isFile: false,\n            size: 0,\n            status: FileStatus.NONEXISTENT,\n            isChunkUploaded: new bool[](0)\n        });\n        currentDirectory.contents.push(directoryInfo);\n        currentDirectory.contentIndexes[newDir] = currentDirectory.contents.length;\n        occupiedStorageSpace[owner] += directoryFsSize;\n    }\n\n    // TODO: delete dir with all content in it\n    function deleteDirectory(string calldata directoryPath) external {\n        address owner = msg.sender;\n        string[] memory dirs = Utils.parseDirectoryPath(directoryPath);\n        Directory storage currentDirectory = rootDirectories[owner];\n        for (uint i = 1; i < dirs.length; ++i) {\n            require(currentDirectory.contentIndexes[dirs[i - 1]] > EMPTY_INDEX, \"Invalid path\");\n            currentDirectory = currentDirectory.directories[dirs[i - 1]];\n        }\n        string memory targetDirectory = (dirs.length > 1) ? dirs[dirs.length - 1] : directoryPath;\n        require(currentDirectory.contentIndexes[targetDirectory] > EMPTY_INDEX, \"Invalid path\");\n        require(currentDirectory.directories[targetDirectory].contents.length == 0, \"Directory is not empty\");\n        bool success = PrecompiledCaller.deleteDirectory(owner, directoryPath);\n        require(success, \"Directory is not deleted\");\n        ContentInfo memory lastContent = currentDirectory.contents[currentDirectory.contents.length - 1];\n        currentDirectory.contents[currentDirectory.contentIndexes[targetDirectory] - 1] = lastContent;\n        currentDirectory.contentIndexes[lastContent.name] = currentDirectory.contentIndexes[targetDirectory];\n        currentDirectory.contentIndexes[targetDirectory] = EMPTY_INDEX;\n        currentDirectory.contents.pop();\n        // slither-disable-next-line mapping-deletion\n        delete currentDirectory.directories[targetDirectory];\n        occupiedStorageSpace[owner] -= Utils.calculateDirectorySize();\n    }\n\n    function startUpload(string calldata filePath, uint256 fileSize) external {\n        address owner = msg.sender;\n        uint realFileSize = Utils.calculateFileSize(fileSize);\n        require(fileSize <= MAX_FILESIZE, \"File should be less than 100 MB\");\n        require(realFileSize + occupiedStorageSpace[owner] <= reservedStorageSpace[owner], \"Not enough reserved space\");\n        string[] memory dirs = Utils.parseDirectoryPath(filePath);\n        Directory storage currentDirectory = rootDirectories[owner];\n        for (uint i = 1; i < dirs.length; ++i) {\n            require(currentDirectory.contentIndexes[dirs[i - 1]] > EMPTY_INDEX, \"Invalid path\");\n            currentDirectory = currentDirectory.directories[dirs[i - 1]];\n        }\n        require(currentDirectory.contents.length < getMaxContentCount(), \"Directory is full\");\n        string memory pureFileName = (dirs.length > 1) ?  dirs[dirs.length - 1] : filePath;\n        require(currentDirectory.contentIndexes[pureFileName] == EMPTY_INDEX, \"File or directory exists\");\n        require(Utils.checkContentName(pureFileName), \"Invalid filename\");\n        bool success = PrecompiledCaller.startUpload(owner, filePath, fileSize);\n        require(success, \"File not created\");\n        bool[] memory isChunkUploaded = new bool[]((fileSize + getMaxChunkSize() - 1) / getMaxChunkSize());\n        currentDirectory.contents.push(ContentInfo({\n            name : pureFileName,\n            isFile : true,\n            size : fileSize,\n            status : FileStatus.UPLOADING,\n            isChunkUploaded : isChunkUploaded\n        }));\n        currentDirectory.contentIndexes[pureFileName] = currentDirectory.contents.length;\n        occupiedStorageSpace[owner] += realFileSize;\n    }\n\n    function uploadChunk(string calldata filePath, uint position, bytes calldata data) external {\n        address owner = msg.sender;\n        ContentInfo storage file = getContentInfo(owner, filePath);\n        require(file.status == FileStatus.UPLOADING, \"File not found\");\n        require(position % getMaxChunkSize() == 0 && position < file.size, \"Incorrect chunk position\");\n        require(\n            file.size - position < getMaxChunkSize() &&\n            data.length == file.size - position ||\n            data.length == getMaxChunkSize(), \"Incorrect chunk length\"\n        );\n        require(!file.isChunkUploaded[position / getMaxChunkSize()], \"Chunk is already uploaded\");\n        bool success = PrecompiledCaller.uploadChunk(\n            owner,\n            filePath,\n            position,\n            data\n        );\n        require(success, \"Chunk wasn't uploaded\");\n        file.isChunkUploaded[position / getMaxChunkSize()] = true;\n    }\n\n    function finishUpload(string calldata filePath) external {\n        address owner = msg.sender;\n        ContentInfo storage file = getContentInfo(owner, filePath);\n        require(file.status == FileStatus.UPLOADING, \"File not found\");\n        bool isFileUploaded = true;\n        uint chunkCount = file.isChunkUploaded.length;\n        for (uint i = 0; i < chunkCount; ++i) {\n            if (!file.isChunkUploaded[i]) {\n                isFileUploaded = false;\n            }\n        }\n        require(isFileUploaded, \"File hasn't been uploaded correctly\");\n        file.status = FileStatus.COMPLETED;\n        bool success = PrecompiledCaller.calculateFileHash(owner, filePath);\n        require(success, \"Hash hasn't been calculated\");\n    }\n\n    function deleteFile(string calldata filePath) external {\n        address owner = msg.sender;\n        ContentInfo memory file = getContentInfo(owner, filePath);\n        require(file.status != FileStatus.NONEXISTENT, \"File not exists\");\n        bool success = PrecompiledCaller.deleteFile(owner, filePath);\n        require(success, \"File not deleted\");\n        string[] memory dirs = Utils.parseDirectoryPath(filePath);\n        Directory storage currentDirectory = rootDirectories[owner];\n        for (uint i = 1; i < dirs.length; ++i) {\n            currentDirectory = currentDirectory.directories[dirs[i - 1]];\n        }\n        uint idx = currentDirectory.contentIndexes[file.name] - 1;\n        ContentInfo memory lastContent = currentDirectory.contents[currentDirectory.contents.length - 1];\n        currentDirectory.contents[idx] = lastContent;\n        currentDirectory.contents.pop();\n        currentDirectory.contentIndexes[lastContent.name] = currentDirectory.contentIndexes[file.name];\n        currentDirectory.contentIndexes[file.name] = EMPTY_INDEX;\n        occupiedStorageSpace[owner] -= Utils.calculateFileSize(file.size);\n    }\n\n    function readChunk(string calldata storagePath, uint position, uint length)\n        external\n        view\n        returns (bytes32[MAX_BLOCK_COUNT] memory chunk)\n    {\n        (address owner, string memory filePath) = Utils.parseStoragePath(storagePath);\n        ContentInfo memory file = getContentInfo(owner, filePath);\n        require(file.status == FileStatus.COMPLETED, \"File hasn't been uploaded\");\n        require(length <= getMaxChunkSize() && length > 0, \"Incorrect chunk length\");\n        require(position + length <= file.size, \"Incorrect chunk position\");\n        bool success;\n        (success, chunk) = PrecompiledCaller.readChunk(\n            owner,\n            filePath,\n            position,\n            length\n        );\n        require(success, \"Chunk wasn't read\");\n    }\n\n    // TODO: handle root dir\n    function listDirectory(string calldata storagePath) external view returns (ContentInfo[] memory) {\n        (address owner, string memory directoryPath) = Utils.parseStoragePath(storagePath);\n        string[] memory dirs = Utils.parseDirectoryPath(directoryPath);\n        Directory storage currentDirectory = rootDirectories[owner];\n        for (uint i = 0; i < dirs.length; ++i) {\n            require(currentDirectory.contentIndexes[dirs[i]] > EMPTY_INDEX, \"Invalid path\");\n            currentDirectory = currentDirectory.directories[dirs[i]];\n        }\n        return currentDirectory.contents;\n    }\n\n    function getFileStatus(string calldata storagePath) external view returns (FileStatus) {\n        (address owner, string memory filePath) = Utils.parseStoragePath(storagePath);\n        string[] memory dirs = Utils.parseDirectoryPath(filePath);\n        Directory storage currentDirectory = rootDirectories[owner];\n        for (uint i = 1; i < dirs.length; ++i) {\n            if (currentDirectory.contentIndexes[dirs[i - 1]] == EMPTY_INDEX) {\n                return FileStatus.NONEXISTENT;\n            }\n            currentDirectory = currentDirectory.directories[dirs[i - 1]];\n        }\n        string memory contentName = (dirs.length > 1) ? dirs[dirs.length - 1] : filePath;\n        if (currentDirectory.contentIndexes[contentName] == EMPTY_INDEX) {\n            return FileStatus.NONEXISTENT;\n        }\n        ContentInfo memory file = currentDirectory.contents[currentDirectory.contentIndexes[contentName] - 1];\n        return file.status;\n    }\n\n    function getFileSize(string calldata storagePath) external view returns (uint fileSize) {\n        (address owner, string memory filePath) = Utils.parseStoragePath(storagePath);\n        ContentInfo memory file = getContentInfo(owner, filePath);\n        require(\n            file.status == FileStatus.UPLOADING ||\n            file.status == FileStatus.COMPLETED, \"File not found\"\n        );\n        bool success;\n        (success, fileSize) = PrecompiledCaller.getFileSize(owner, filePath);\n        require(success, \"EVM error in getFileSize\");\n    }\n\n    function getTotalStorageSpace() external view returns (uint) {\n        return storageSpace();\n    }\n\n    function getTotalReservedSpace() external view returns (uint) {\n        return totalReservedSpace;\n    }\n\n    function getReservedSpace(address owner) external view returns (uint) {\n        return reservedStorageSpace[owner];\n    }\n\n    function getOccupiedSpace(address owner) external view returns (uint) {\n        return occupiedStorageSpace[owner];\n    }\n\n    function getMaxContentCount() public virtual view returns (uint) {\n        return MAX_CONTENT_COUNT;\n    }\n\n    function getMaxChunkSize() public virtual view returns (uint) {\n        return MAX_CHUNK_SIZE;\n    }\n\n    function getContentInfo(address owner, string memory contentPath) internal view returns (ContentInfo storage) {\n        string[] memory dirs = Utils.parseDirectoryPath(contentPath);\n        Directory storage currentDirectory = rootDirectories[owner];\n        for (uint i = 1; i < dirs.length; ++i) {\n            require(currentDirectory.contentIndexes[dirs[i - 1]] > EMPTY_INDEX, \"Invalid path\");\n            currentDirectory = currentDirectory.directories[dirs[i - 1]];\n        }\n        string memory contentName = (dirs.length > 1) ? dirs[dirs.length - 1] : contentPath;\n        require(currentDirectory.contentIndexes[contentName] > EMPTY_INDEX, \"Invalid path\");\n        ContentInfo storage result = currentDirectory.contents[currentDirectory.contentIndexes[contentName] - 1];\n        return result;\n    }\n\n    function storageSpace() internal view returns (uint) {\n        return StorageSlotUpgradeable.getUint256Slot(STORAGE_SPACE_SLOT).value;\n    }\n}\n",
  "sourcePath": "/home/runner/work/filestorage/filestorage/contracts/FileStorage.sol",
  "compiler": {
    "name": "solc",
    "version": "0.8.9+commit.e5eed63a.Emscripten.clang"
  },
  "schemaVersion": "3.2.0",
  "updatedAt": "2022-05-19T18:44:45.856Z",
  "devdoc": {
    "kind": "dev",
    "methods": {
      "getRoleAdmin(bytes32)": {
        "details": "Returns the admin role that controls `role`. See {grantRole} and {revokeRole}. To change a role's admin, use {_setRoleAdmin}."
      },
      "getRoleMember(bytes32,uint256)": {
        "details": "Returns one of the accounts that have `role`. `index` must be a value between 0 and {getRoleMemberCount}, non-inclusive. Role bearers are not sorted in any particular way, and their ordering may change at any point. WARNING: When using {getRoleMember} and {getRoleMemberCount}, make sure you perform all queries on the same block. See the following https://forum.openzeppelin.com/t/iterating-over-elements-on-enumerableset-in-openzeppelin-contracts/2296[forum post] for more information."
      },
      "getRoleMemberCount(bytes32)": {
        "details": "Returns the number of accounts that have `role`. Can be used together with {getRoleMember} to enumerate all bearers of a role."
      },
      "grantRole(bytes32,address)": {
        "details": "Overload {grantRole} to track enumerable memberships"
      },
      "hasRole(bytes32,address)": {
        "details": "Returns `true` if `account` has been granted `role`."
      },
      "renounceRole(bytes32,address)": {
        "details": "Overload {renounceRole} to track enumerable memberships"
      },
      "revokeRole(bytes32,address)": {
        "details": "Overload {revokeRole} to track enumerable memberships"
      },
      "supportsInterface(bytes4)": {
        "details": "See {IERC165-supportsInterface}."
      }
    },
    "version": 1
  },
  "userdoc": {
    "kind": "user",
    "methods": {},
    "version": 1
  }
}